{"abi":[{"type":"constructor","inputs":[],"stateMutability":"nonpayable"},{"type":"function","name":"approve","inputs":[{"name":"to","type":"address","internalType":"address"},{"name":"tokenId","type":"uint256","internalType":"uint256"}],"outputs":[],"stateMutability":"nonpayable"},{"type":"function","name":"balanceOf","inputs":[{"name":"owner","type":"address","internalType":"address"}],"outputs":[{"name":"","type":"uint256","internalType":"uint256"}],"stateMutability":"view"},{"type":"function","name":"getApproved","inputs":[{"name":"tokenId","type":"uint256","internalType":"uint256"}],"outputs":[{"name":"","type":"address","internalType":"address"}],"stateMutability":"view"},{"type":"function","name":"getTokenCounter","inputs":[],"outputs":[{"name":"","type":"uint256","internalType":"uint256"}],"stateMutability":"view"},{"type":"function","name":"isApprovedForAll","inputs":[{"name":"owner","type":"address","internalType":"address"},{"name":"operator","type":"address","internalType":"address"}],"outputs":[{"name":"","type":"bool","internalType":"bool"}],"stateMutability":"view"},{"type":"function","name":"mintNft","inputs":[{"name":"tokenUri","type":"string","internalType":"string"}],"outputs":[],"stateMutability":"nonpayable"},{"type":"function","name":"name","inputs":[],"outputs":[{"name":"","type":"string","internalType":"string"}],"stateMutability":"view"},{"type":"function","name":"ownerOf","inputs":[{"name":"tokenId","type":"uint256","internalType":"uint256"}],"outputs":[{"name":"","type":"address","internalType":"address"}],"stateMutability":"view"},{"type":"function","name":"safeTransferFrom","inputs":[{"name":"from","type":"address","internalType":"address"},{"name":"to","type":"address","internalType":"address"},{"name":"tokenId","type":"uint256","internalType":"uint256"}],"outputs":[],"stateMutability":"nonpayable"},{"type":"function","name":"safeTransferFrom","inputs":[{"name":"from","type":"address","internalType":"address"},{"name":"to","type":"address","internalType":"address"},{"name":"tokenId","type":"uint256","internalType":"uint256"},{"name":"data","type":"bytes","internalType":"bytes"}],"outputs":[],"stateMutability":"nonpayable"},{"type":"function","name":"setApprovalForAll","inputs":[{"name":"operator","type":"address","internalType":"address"},{"name":"approved","type":"bool","internalType":"bool"}],"outputs":[],"stateMutability":"nonpayable"},{"type":"function","name":"supportsInterface","inputs":[{"name":"interfaceId","type":"bytes4","internalType":"bytes4"}],"outputs":[{"name":"","type":"bool","internalType":"bool"}],"stateMutability":"view"},{"type":"function","name":"symbol","inputs":[],"outputs":[{"name":"","type":"string","internalType":"string"}],"stateMutability":"view"},{"type":"function","name":"tokenURI","inputs":[{"name":"tokenId","type":"uint256","internalType":"uint256"}],"outputs":[{"name":"","type":"string","internalType":"string"}],"stateMutability":"view"},{"type":"function","name":"transferFrom","inputs":[{"name":"from","type":"address","internalType":"address"},{"name":"to","type":"address","internalType":"address"},{"name":"tokenId","type":"uint256","internalType":"uint256"}],"outputs":[],"stateMutability":"nonpayable"},{"type":"event","name":"Approval","inputs":[{"name":"owner","type":"address","indexed":true,"internalType":"address"},{"name":"approved","type":"address","indexed":true,"internalType":"address"},{"name":"tokenId","type":"uint256","indexed":true,"internalType":"uint256"}],"anonymous":false},{"type":"event","name":"ApprovalForAll","inputs":[{"name":"owner","type":"address","indexed":true,"internalType":"address"},{"name":"operator","type":"address","indexed":true,"internalType":"address"},{"name":"approved","type":"bool","indexed":false,"internalType":"bool"}],"anonymous":false},{"type":"event","name":"Transfer","inputs":[{"name":"from","type":"address","indexed":true,"internalType":"address"},{"name":"to","type":"address","indexed":true,"internalType":"address"},{"name":"tokenId","type":"uint256","indexed":true,"internalType":"uint256"}],"anonymous":false},{"type":"error","name":"ERC721IncorrectOwner","inputs":[{"name":"sender","type":"address","internalType":"address"},{"name":"tokenId","type":"uint256","internalType":"uint256"},{"name":"owner","type":"address","internalType":"address"}]},{"type":"error","name":"ERC721InsufficientApproval","inputs":[{"name":"operator","type":"address","internalType":"address"},{"name":"tokenId","type":"uint256","internalType":"uint256"}]},{"type":"error","name":"ERC721InvalidApprover","inputs":[{"name":"approver","type":"address","internalType":"address"}]},{"type":"error","name":"ERC721InvalidOperator","inputs":[{"name":"operator","type":"address","internalType":"address"}]},{"type":"error","name":"ERC721InvalidOwner","inputs":[{"name":"owner","type":"address","internalType":"address"}]},{"type":"error","name":"ERC721InvalidReceiver","inputs":[{"name":"receiver","type":"address","internalType":"address"}]},{"type":"error","name":"ERC721InvalidSender","inputs":[{"name":"sender","type":"address","internalType":"address"}]},{"type":"error","name":"ERC721NonexistentToken","inputs":[{"name":"tokenId","type":"uint256","internalType":"uint256"}]}],"bytecode":{"object":"0x608060405234801561000f575f5ffd5b506040518060400160405280600681526020017f4b6162726f6e00000000000000000000000000000000000000000000000000008152506040518060400160405280600381526020017f4b41420000000000000000000000000000000000000000000000000000000000815250815f908161008a91906102e6565b50806001908161009a91906102e6565b5050505f6006819055506103b5565b5f81519050919050565b7f4e487b71000000000000000000000000000000000000000000000000000000005f52604160045260245ffd5b7f4e487b71000000000000000000000000000000000000000000000000000000005f52602260045260245ffd5b5f600282049050600182168061012457607f821691505b602082108103610137576101366100e0565b5b50919050565b5f819050815f5260205f209050919050565b5f6020601f8301049050919050565b5f82821b905092915050565b5f600883026101997fffffffffffffffffffffffffffffffffffffffffffffffffffffffffffffffff8261015e565b6101a3868361015e565b95508019841693508086168417925050509392505050565b5f819050919050565b5f819050919050565b5f6101e76101e26101dd846101bb565b6101c4565b6101bb565b9050919050565b5f819050919050565b610200836101cd565b61021461020c826101ee565b84845461016a565b825550505050565b5f5f905090565b61022b61021c565b6102368184846101f7565b505050565b5b818110156102595761024e5f82610223565b60018101905061023c565b5050565b601f82111561029e5761026f8161013d565b6102788461014f565b81016020851015610287578190505b61029b6102938561014f565b83018261023b565b50505b505050565b5f82821c905092915050565b5f6102be5f19846008026102a3565b1980831691505092915050565b5f6102d683836102af565b9150826002028217905092915050565b6102ef826100a9565b67ffffffffffffffff811115610308576103076100b3565b5b610312825461010d565b61031d82828561025d565b5f60209050601f83116001811461034e575f841561033c578287015190505b61034685826102cb565b8655506103ad565b601f19841661035c8661013d565b5f5b828110156103835784890151825560018201915060208501945060208101905061035e565b868310156103a0578489015161039c601f8916826102af565b8355505b6001600288020188555050505b505050505050565b611edb806103c25f395ff3fe608060405234801561000f575f5ffd5b50600436106100f3575f3560e01c80636e02007d11610095578063b88d4fde11610064578063b88d4fde14610281578063c87b56dd1461029d578063da86f4a9146102cd578063e985e9c5146102e9576100f3565b80636e02007d146101f957806370a082311461021757806395d89b4114610247578063a22cb46514610265576100f3565b8063095ea7b3116100d1578063095ea7b31461017557806323b872dd1461019157806342842e0e146101ad5780636352211e146101c9576100f3565b806301ffc9a7146100f757806306fdde0314610127578063081812fc14610145575b5f5ffd5b610111600480360381019061010c919061145c565b610319565b60405161011e91906114a1565b60405180910390f35b61012f6103fa565b60405161013c919061152a565b60405180910390f35b61015f600480360381019061015a919061157d565b610489565b60405161016c91906115e7565b60405180910390f35b61018f600480360381019061018a919061162a565b6104a4565b005b6101ab60048036038101906101a69190611668565b6104ba565b005b6101c760048036038101906101c29190611668565b6105b9565b005b6101e360048036038101906101de919061157d565b6105d8565b6040516101f091906115e7565b60405180910390f35b6102016105e9565b60405161020e91906116c7565b60405180910390f35b610231600480360381019061022c91906116e0565b6105f2565b60405161023e91906116c7565b60405180910390f35b61024f6106a8565b60405161025c919061152a565b60405180910390f35b61027f600480360381019061027a9190611735565b610738565b005b61029b6004803603810190610296919061189f565b61074e565b005b6102b760048036038101906102b2919061157d565b610773565b6040516102c4919061152a565b60405180910390f35b6102e760048036038101906102e291906119bd565b610814565b005b61030360048036038101906102fe9190611a04565b610859565b60405161031091906114a1565b60405180910390f35b5f7f80ac58cd000000000000000000000000000000000000000000000000000000007bffffffffffffffffffffffffffffffffffffffffffffffffffffffff1916827bffffffffffffffffffffffffffffffffffffffffffffffffffffffff191614806103e357507f5b5e139f000000000000000000000000000000000000000000000000000000007bffffffffffffffffffffffffffffffffffffffffffffffffffffffff1916827bffffffffffffffffffffffffffffffffffffffffffffffffffffffff1916145b806103f357506103f2826108e7565b5b9050919050565b60605f805461040890611a6f565b80601f016020809104026020016040519081016040528092919081815260200182805461043490611a6f565b801561047f5780601f106104565761010080835404028352916020019161047f565b820191905f5260205f20905b81548152906001019060200180831161046257829003601f168201915b5050505050905090565b5f61049382610950565b5061049d826109d6565b9050919050565b6104b682826104b1610a0f565b610a16565b5050565b5f73ffffffffffffffffffffffffffffffffffffffff168273ffffffffffffffffffffffffffffffffffffffff160361052a575f6040517f64a0ae9200000000000000000000000000000000000000000000000000000000815260040161052191906115e7565b60405180910390fd5b5f61053d8383610538610a0f565b610a28565b90508373ffffffffffffffffffffffffffffffffffffffff168173ffffffffffffffffffffffffffffffffffffffff16146105b3578382826040517f64283d7b0000000000000000000000000000000000000000000000000000000081526004016105aa93929190611a9f565b60405180910390fd5b50505050565b6105d383838360405180602001604052805f81525061074e565b505050565b5f6105e282610950565b9050919050565b5f600654905090565b5f5f73ffffffffffffffffffffffffffffffffffffffff168273ffffffffffffffffffffffffffffffffffffffff1603610663575f6040517f89c62b6400000000000000000000000000000000000000000000000000000000815260040161065a91906115e7565b60405180910390fd5b60035f8373ffffffffffffffffffffffffffffffffffffffff1673ffffffffffffffffffffffffffffffffffffffff1681526020019081526020015f20549050919050565b6060600180546106b790611a6f565b80601f01602080910402602001604051908101604052809291908181526020018280546106e390611a6f565b801561072e5780601f106107055761010080835404028352916020019161072e565b820191905f5260205f20905b81548152906001019060200180831161071157829003601f168201915b5050505050905090565b61074a610743610a0f565b8383610c33565b5050565b6107598484846104ba565b61076d610764610a0f565b85858585610d9c565b50505050565b606060075f8381526020019081526020015f20805461079190611a6f565b80601f01602080910402602001604051908101604052809291908181526020018280546107bd90611a6f565b80156108085780601f106107df57610100808354040283529160200191610808565b820191905f5260205f20905b8154815290600101906020018083116107eb57829003601f168201915b50505050509050919050565b8060075f60065481526020019081526020015f2090816108349190611c74565b5061084133600654610f48565b60016006546108509190611d70565b60068190555050565b5f60055f8473ffffffffffffffffffffffffffffffffffffffff1673ffffffffffffffffffffffffffffffffffffffff1681526020019081526020015f205f8373ffffffffffffffffffffffffffffffffffffffff1673ffffffffffffffffffffffffffffffffffffffff1681526020019081526020015f205f9054906101000a900460ff16905092915050565b5f7f01ffc9a7000000000000000000000000000000000000000000000000000000007bffffffffffffffffffffffffffffffffffffffffffffffffffffffff1916827bffffffffffffffffffffffffffffffffffffffffffffffffffffffff1916149050919050565b5f5f61095b83610f65565b90505f73ffffffffffffffffffffffffffffffffffffffff168173ffffffffffffffffffffffffffffffffffffffff16036109cd57826040517f7e2732890000000000000000000000000000000000000000000000000000000081526004016109c491906116c7565b60405180910390fd5b80915050919050565b5f60045f8381526020019081526020015f205f9054906101000a900473ffffffffffffffffffffffffffffffffffffffff169050919050565b5f33905090565b610a238383836001610f9e565b505050565b5f5f610a3384610f65565b90505f73ffffffffffffffffffffffffffffffffffffffff168373ffffffffffffffffffffffffffffffffffffffff1614610a7457610a7381848661115d565b5b5f73ffffffffffffffffffffffffffffffffffffffff168173ffffffffffffffffffffffffffffffffffffffff1614610aff57610ab35f855f5f610f9e565b600160035f8373ffffffffffffffffffffffffffffffffffffffff1673ffffffffffffffffffffffffffffffffffffffff1681526020019081526020015f205f82825403925050819055505b5f73ffffffffffffffffffffffffffffffffffffffff168573ffffffffffffffffffffffffffffffffffffffff1614610b7e57600160035f8773ffffffffffffffffffffffffffffffffffffffff1673ffffffffffffffffffffffffffffffffffffffff1681526020019081526020015f205f82825401925050819055505b8460025f8681526020019081526020015f205f6101000a81548173ffffffffffffffffffffffffffffffffffffffff021916908373ffffffffffffffffffffffffffffffffffffffff160217905550838573ffffffffffffffffffffffffffffffffffffffff168273ffffffffffffffffffffffffffffffffffffffff167fddf252ad1be2c89b69c2b068fc378daa952ba7f163c4a11628f55a4df523b3ef60405160405180910390a4809150509392505050565b5f73ffffffffffffffffffffffffffffffffffffffff168273ffffffffffffffffffffffffffffffffffffffff1603610ca357816040517f5b08ba18000000000000000000000000000000000000000000000000000000008152600401610c9a91906115e7565b60405180910390fd5b8060055f8573ffffffffffffffffffffffffffffffffffffffff1673ffffffffffffffffffffffffffffffffffffffff1681526020019081526020015f205f8473ffffffffffffffffffffffffffffffffffffffff1673ffffffffffffffffffffffffffffffffffffffff1681526020019081526020015f205f6101000a81548160ff0219169083151502179055508173ffffffffffffffffffffffffffffffffffffffff168373ffffffffffffffffffffffffffffffffffffffff167f17307eab39ab6107e8899845ad3d59bd9653f200f220920489ca2b5937696c3183604051610d8f91906114a1565b60405180910390a3505050565b5f8373ffffffffffffffffffffffffffffffffffffffff163b1115610f41578273ffffffffffffffffffffffffffffffffffffffff1663150b7a02868685856040518563ffffffff1660e01b8152600401610dfa9493929190611df5565b6020604051808303815f875af1925050508015610e3557506040513d601f19601f82011682018060405250810190610e329190611e53565b60015b610eb6573d805f8114610e63576040519150601f19603f3d011682016040523d82523d5f602084013e610e68565b606091505b505f815103610eae57836040517f64a0ae92000000000000000000000000000000000000000000000000000000008152600401610ea591906115e7565b60405180910390fd5b805160208201fd5b63150b7a0260e01b7bffffffffffffffffffffffffffffffffffffffffffffffffffffffff1916817bffffffffffffffffffffffffffffffffffffffffffffffffffffffff191614610f3f57836040517f64a0ae92000000000000000000000000000000000000000000000000000000008152600401610f3691906115e7565b60405180910390fd5b505b5050505050565b610f61828260405180602001604052805f815250611220565b5050565b5f60025f8381526020019081526020015f205f9054906101000a900473ffffffffffffffffffffffffffffffffffffffff169050919050565b8080610fd657505f73ffffffffffffffffffffffffffffffffffffffff168273ffffffffffffffffffffffffffffffffffffffff1614155b15611108575f610fe584610950565b90505f73ffffffffffffffffffffffffffffffffffffffff168373ffffffffffffffffffffffffffffffffffffffff161415801561104f57508273ffffffffffffffffffffffffffffffffffffffff168173ffffffffffffffffffffffffffffffffffffffff1614155b801561106257506110608184610859565b155b156110a457826040517fa9fbf51f00000000000000000000000000000000000000000000000000000000815260040161109b91906115e7565b60405180910390fd5b811561110657838573ffffffffffffffffffffffffffffffffffffffff168273ffffffffffffffffffffffffffffffffffffffff167f8c5be1e5ebec7d5bd14f71427d1e84f3dd0314c0f7b2291e5b200ac8c7c3b92560405160405180910390a45b505b8360045f8581526020019081526020015f205f6101000a81548173ffffffffffffffffffffffffffffffffffffffff021916908373ffffffffffffffffffffffffffffffffffffffff16021790555050505050565b611168838383611243565b61121b575f73ffffffffffffffffffffffffffffffffffffffff168373ffffffffffffffffffffffffffffffffffffffff16036111dc57806040517f7e2732890000000000000000000000000000000000000000000000000000000081526004016111d391906116c7565b60405180910390fd5b81816040517f177e802f000000000000000000000000000000000000000000000000000000008152600401611212929190611e7e565b60405180910390fd5b505050565b61122a8383611303565b61123e611235610a0f565b5f858585610d9c565b505050565b5f5f73ffffffffffffffffffffffffffffffffffffffff168373ffffffffffffffffffffffffffffffffffffffff16141580156112fa57508273ffffffffffffffffffffffffffffffffffffffff168473ffffffffffffffffffffffffffffffffffffffff1614806112bb57506112ba8484610859565b5b806112f957508273ffffffffffffffffffffffffffffffffffffffff166112e1836109d6565b73ffffffffffffffffffffffffffffffffffffffff16145b5b90509392505050565b5f73ffffffffffffffffffffffffffffffffffffffff168273ffffffffffffffffffffffffffffffffffffffff1603611373575f6040517f64a0ae9200000000000000000000000000000000000000000000000000000000815260040161136a91906115e7565b60405180910390fd5b5f61137f83835f610a28565b90505f73ffffffffffffffffffffffffffffffffffffffff168173ffffffffffffffffffffffffffffffffffffffff16146113f1575f6040517f73c6ac6e0000000000000000000000000000000000000000000000000000000081526004016113e891906115e7565b60405180910390fd5b505050565b5f604051905090565b5f5ffd5b5f5ffd5b5f7fffffffff0000000000000000000000000000000000000000000000000000000082169050919050565b61143b81611407565b8114611445575f5ffd5b50565b5f8135905061145681611432565b92915050565b5f60208284031215611471576114706113ff565b5b5f61147e84828501611448565b91505092915050565b5f8115159050919050565b61149b81611487565b82525050565b5f6020820190506114b45f830184611492565b92915050565b5f81519050919050565b5f82825260208201905092915050565b8281835e5f83830152505050565b5f601f19601f8301169050919050565b5f6114fc826114ba565b61150681856114c4565b93506115168185602086016114d4565b61151f816114e2565b840191505092915050565b5f6020820190508181035f83015261154281846114f2565b905092915050565b5f819050919050565b61155c8161154a565b8114611566575f5ffd5b50565b5f8135905061157781611553565b92915050565b5f60208284031215611592576115916113ff565b5b5f61159f84828501611569565b91505092915050565b5f73ffffffffffffffffffffffffffffffffffffffff82169050919050565b5f6115d1826115a8565b9050919050565b6115e1816115c7565b82525050565b5f6020820190506115fa5f8301846115d8565b92915050565b611609816115c7565b8114611613575f5ffd5b50565b5f8135905061162481611600565b92915050565b5f5f604083850312156116405761163f6113ff565b5b5f61164d85828601611616565b925050602061165e85828601611569565b9150509250929050565b5f5f5f6060848603121561167f5761167e6113ff565b5b5f61168c86828701611616565b935050602061169d86828701611616565b92505060406116ae86828701611569565b9150509250925092565b6116c18161154a565b82525050565b5f6020820190506116da5f8301846116b8565b92915050565b5f602082840312156116f5576116f46113ff565b5b5f61170284828501611616565b91505092915050565b61171481611487565b811461171e575f5ffd5b50565b5f8135905061172f8161170b565b92915050565b5f5f6040838503121561174b5761174a6113ff565b5b5f61175885828601611616565b925050602061176985828601611721565b9150509250929050565b5f5ffd5b5f5ffd5b7f4e487b71000000000000000000000000000000000000000000000000000000005f52604160045260245ffd5b6117b1826114e2565b810181811067ffffffffffffffff821117156117d0576117cf61177b565b5b80604052505050565b5f6117e26113f6565b90506117ee82826117a8565b919050565b5f67ffffffffffffffff82111561180d5761180c61177b565b5b611816826114e2565b9050602081019050919050565b828183375f83830152505050565b5f61184361183e846117f3565b6117d9565b90508281526020810184848401111561185f5761185e611777565b5b61186a848285611823565b509392505050565b5f82601f83011261188657611885611773565b5b8135611896848260208601611831565b91505092915050565b5f5f5f5f608085870312156118b7576118b66113ff565b5b5f6118c487828801611616565b94505060206118d587828801611616565b93505060406118e687828801611569565b925050606085013567ffffffffffffffff81111561190757611906611403565b5b61191387828801611872565b91505092959194509250565b5f67ffffffffffffffff8211156119395761193861177b565b5b611942826114e2565b9050602081019050919050565b5f61196161195c8461191f565b6117d9565b90508281526020810184848401111561197d5761197c611777565b5b611988848285611823565b509392505050565b5f82601f8301126119a4576119a3611773565b5b81356119b484826020860161194f565b91505092915050565b5f602082840312156119d2576119d16113ff565b5b5f82013567ffffffffffffffff8111156119ef576119ee611403565b5b6119fb84828501611990565b91505092915050565b5f5f60408385031215611a1a57611a196113ff565b5b5f611a2785828601611616565b9250506020611a3885828601611616565b9150509250929050565b7f4e487b71000000000000000000000000000000000000000000000000000000005f52602260045260245ffd5b5f6002820490506001821680611a8657607f821691505b602082108103611a9957611a98611a42565b5b50919050565b5f606082019050611ab25f8301866115d8565b611abf60208301856116b8565b611acc60408301846115d8565b949350505050565b5f819050815f5260205f209050919050565b5f6020601f8301049050919050565b5f82821b905092915050565b5f60088302611b307fffffffffffffffffffffffffffffffffffffffffffffffffffffffffffffffff82611af5565b611b3a8683611af5565b95508019841693508086168417925050509392505050565b5f819050919050565b5f611b75611b70611b6b8461154a565b611b52565b61154a565b9050919050565b5f819050919050565b611b8e83611b5b565b611ba2611b9a82611b7c565b848454611b01565b825550505050565b5f5f905090565b611bb9611baa565b611bc4818484611b85565b505050565b5b81811015611be757611bdc5f82611bb1565b600181019050611bca565b5050565b601f821115611c2c57611bfd81611ad4565b611c0684611ae6565b81016020851015611c15578190505b611c29611c2185611ae6565b830182611bc9565b50505b505050565b5f82821c905092915050565b5f611c4c5f1984600802611c31565b1980831691505092915050565b5f611c648383611c3d565b9150826002028217905092915050565b611c7d826114ba565b67ffffffffffffffff811115611c9657611c9561177b565b5b611ca08254611a6f565b611cab828285611beb565b5f60209050601f831160018114611cdc575f8415611cca578287015190505b611cd48582611c59565b865550611d3b565b601f198416611cea86611ad4565b5f5b82811015611d1157848901518255600182019150602085019450602081019050611cec565b86831015611d2e5784890151611d2a601f891682611c3d565b8355505b6001600288020188555050505b505050505050565b7f4e487b71000000000000000000000000000000000000000000000000000000005f52601160045260245ffd5b5f611d7a8261154a565b9150611d858361154a565b9250828201905080821115611d9d57611d9c611d43565b5b92915050565b5f81519050919050565b5f82825260208201905092915050565b5f611dc782611da3565b611dd18185611dad565b9350611de18185602086016114d4565b611dea816114e2565b840191505092915050565b5f608082019050611e085f8301876115d8565b611e1560208301866115d8565b611e2260408301856116b8565b8181036060830152611e348184611dbd565b905095945050505050565b5f81519050611e4d81611432565b92915050565b5f60208284031215611e6857611e676113ff565b5b5f611e7584828501611e3f565b91505092915050565b5f604082019050611e915f8301856115d8565b611e9e60208301846116b8565b939250505056fea26469706673582212200fad0c91b2b3f14a87a9e580a984c4526bed307b21593d9bf47dc752975ec3b664736f6c634300081c0033","linkReferences":{}},"methodIdentifiers":{"approve(address,uint256)":"095ea7b3","balanceOf(address)":"70a08231","getApproved(uint256)":"081812fc","getTokenCounter()":"6e02007d","isApprovedForAll(address,address)":"e985e9c5","mintNft(string)":"da86f4a9","name()":"06fdde03","ownerOf(uint256)":"6352211e","safeTransferFrom(address,address,uint256)":"42842e0e","safeTransferFrom(address,address,uint256,bytes)":"b88d4fde","setApprovalForAll(address,bool)":"a22cb465","supportsInterface(bytes4)":"01ffc9a7","symbol()":"95d89b41","tokenURI(uint256)":"c87b56dd","transferFrom(address,address,uint256)":"23b872dd"},"id":36}